:100000000C9460000C9488000C9488000C94880078
:100010000C9488000C9488000C9488000C94880040
:100020000C9488000C9488000C9488000C94880030
:100030000C9488000C9488000C9488000C94880020
:100040000C948F040C9488000C943C070C946E075D
:100050000C9488000C9488000C9488000C94880000
:100060000C9462030C948800000000080002010058
:100070000003040700000000000000000102040863
:100080001020408001020408102001020408102002
:10009000040404040404040402020202020203032E
:1000A0000303030300000000250028002B000000CC
:1000B0000000240027002A000C01D3029E071E0125
:1000C00011241FBECFEFD8E0DEBFCDBF11E0A0E00E
:1000D000B1E0E6E7F8E102C005900D92AC39B10756
:1000E000D9F723E0ACE9B1E001C01D92AD31B20710
:1000F000E1F710E0CEEBD0E004C02297FE010E94B1
:10010000B209C83BD107C9F70E94E2070C942E0C34
:100110000C9400008FE991E00E947C0885EA91E050
:100120000E947C088BEA91E00C947C080F931F934B
:10013000CF93DF93CDB7DEB72C970FB6F894DEBF21
:100140000FBECDBF8C0180910701882309F459C0EF
:100150006BE771E0CE0107960E94EA0868E071E063
:10016000CE0101960E94EA0820919D0130919E01E6
:1001700022303105B1F04CF42115310579F02130F0
:100180003105C1F46CE171E011C02330310561F03B
:100190002430310579F464E271E008C06FE071E069
:1001A00005C064E171E002C065E371E0CE0107962D
:1001B0000E940009B801CE0101960E945B0966E425
:1001C00071E0CE0101960E944B096CE471E0CE0112
:1001D00001960E944B09BE01695F7F4FCE010196D7
:1001E0000E944409BE016F5F7F4F8CE792E00E943E
:1001F0005808CE0101960E947C08CE0107960E9405
:100200007C082C960FB6F894DEBF0FBECDBFDF91F1
:10021000CF911F910F9108956BE771E08BEA91E008
:100220000E94EA086BE771E085EA91E00E94EA0823
:100230006BE771E08FE991E00C94EA080C948A0076
:10024000CF93DF936AE470E083EB91E00E94D102E8
:10025000E091B301F091B4010190F081E02D60E0F4
:1002600083EB91E0099541E050E06AE470E083EBB4
:1002700091E00E94C402CAE0D0E083EB91E00E94CA
:100280001602892B31F083EB91E0DF91CF910C9432
:100290001E02219791F764E571E08CE792E00E94DD
:1002A0006A088FE190E0DF91CF91089583EB91E0B0
:1002B0000E94AD0226E040E855E260E070E08CE785
:1002C00092E00E94DA0661E08CE00E94880561E01D
:1002D0008DE00E94880560E08DE00E94C10560E02D
:1002E0008CE00E94C1050E9420019093B20180938E
:1002F000B1014B973CF482E090E090939E01809393
:100300009D0104C010929E0110929D0167E671E06C
:100310008CE792E00E946A088091B1019091B2014D
:100320000E94960060ED77E080E090E00C94FC0481
:1003300080919D0190919E0182309105A1F12CF454
:10034000009751F00197D9F0089583309105F1F1AC
:10035000049709F443C008958091B1019091B201CE
:100360009C012C5131092730310508F446C0839790
:100370001CF081E090E025C082E090E022C08091F6
:10038000B1019091B2018B31910554F00E94960019
:10039000609106018CE00E94C10560919C0136C00D
:1003A00083E090E00EC08091B1019091B20184325F
:1003B00091052CF40E94960060919C0122C084E07B
:1003C00090E090939E0180939D0108958091B101EA
:1003D0009091B2019C012A51310907C08091B1016D
:1003E0009091B2019C01205231092530310528F04D
:1003F00010929E0110929D0108950E9496006091B6
:1004000006018CE00E94C105609106018DE00E940A
:10041000C10568EE73E080E090E00E94FC040E9459
:1004200020019093B2018093B10108958091E3017E
:1004300090E02091E401821B910908952091E4014C
:100440008091E301281750F4E22FF0E0EB51FE4FCA
:10045000808190E02F5F2093E40108958FEF9FEF5C
:100460000895E091E4018091E301E81730F4F0E0B1
:10047000EB51FE4F808190E008958FEF9FEF08953C
:100480000895CF92DF92EF92FF920F931F93CF9335
:10049000DF937C01CB018A012091BF01222389F0E7
:1004A000EB016B01C40ED51ECC15DD0569F0699119
:1004B000D701ED91FC910190F081E02DC7010995E4
:1004C000F3CF642F0E943903C801DF91CF911F91B0
:1004D0000F91FF90EF90DF90CF900895CF93DF932F
:1004E0001F92CDB7DEB769832091BF012223D1F0DF
:1004F0002091C001203240F021E030E0FC01338344
:10050000228380E090E015C08091C101E82FF0E0E7
:10051000EE53FE4F998190838F5F8093C10180934A
:10052000C00105C061E0CE0101960E94390381E05F
:1005300090E00F90DF91CF910895FC011382128219
:1005400048EE53E060E070E0448355836683778330
:1005500080E891E09183808308951092E4011092E5
:10056000E3011092C1011092C0010C94D702862FB2
:10057000413208F040E265EE71E00E94F50210920F
:10058000E4018093E301089521E00C94B70281E037
:100590008093BF016093E2011092C1011092C001EB
:1005A00008950C94C70283EB91E00C949D02109285
:1005B000720281E08093700210926F0261E082E12A
:1005C0000E94C10561E083E10E94C105E9EBF0E012
:1005D00080818E7F808380818D7F808388E480937B
:1005E000B80085E48093BC000895413208F03FC014
:1005F000909172029111FCCF91E09093720220933E
:1006000070022FEF2093050210924A02240F2093CC
:1006100049029093710290917102880F892B809307
:10062000710280916F02813041F410926F028091CB
:1006300071028093BB0085EC01C085EE8093BC0005
:10064000809172028130E1F380914A02841710F4A4
:1006500040914A022BE432E0FB01D9018A2F821B30
:10066000841718F48D918193F9CF842F089580E039
:100670000895613298F420917202243089F46093D5
:100680002702FC0189E292E0DC012A2F281B2617B1
:1006900018F421912D93F9CF80E0089581E0089519
:1006A00082E0089585ED8093BC008091BC0084FDBC
:1006B000FCCF10927202089585EC8093BC001092DA
:1006C000720208951F920F920FB60F9211242F936A
:1006D0003F934F935F936F937F938F939F93AF93CA
:1006E000BF93EF93FF938091B900887F803609F420
:1006F0009CC068F5883209F45BC090F4803109F43D
:1007000054C038F4882309F4F5C0883009F44DC08A
:10071000F5C0883109F44CC0803209F45DC0EEC0E8
:10072000803409F468C048F4803309F455C0883334
:1007300009F0E4C080930502A8C0803509F44FC0D9
:10074000883509F45DC0883409F0D8C0D5C088392F
:1007500009F4C6C0A8F4883709F467C038F48836AD
:1007600009F463C0803709F460C0C8C0883809F450
:10077000B7C0803909F45FC0803809F0BFC05BC0E2
:10078000803B09F485C038F4803A09F466C0883AA1
:1007900009F47EC0B3C0803C09F4A6C0883C09F4CB
:1007A000A3C0883B09F489C0A9C08091710210C020
:1007B00090914A0280914902981770F5E0914A029F
:1007C00081E08E0F80934A02F0E0E55BFD4F80816F
:1007D0008093BB0085EC85C0809305028DC0E091BD
:1007E0004A0281E08E0F80934A028091BB00F0E0C4
:1007F000E55BFD4F808390914A02809149026DC074
:10080000E0914A0281E08E0F80934A028091BB0002
:10081000F0E0E55BFD4F80838091700281116CC038
:1008200081E080936F0284EA60C083E0809372026B
:1008300010920602CFCF80910602803208F050C09D
:10084000E091060281E08E0F809306028091BB004A
:10085000F0E0E95FFD4F8083BDCF809106028032DA
:1008600030F4E0910602F0E0E95FFD4F10820E9453
:1008700052036091060270E0E0916B02F0916C020D
:1008800087E092E00995109206020E945C0336C050
:1008900084E0809372021092280210922702E09165
:1008A0006D02F0916E02099580912702811105C0B9
:1008B00081E08093270210922902E091280281E0D2
:1008C0008E0F80932802F0E0E75DFD4F80818093DA
:1008D000BB009091280280912702981708F47ACFE4
:1008E00085E88093BC000AC085EC8093BC00109220
:1008F000720204C0109205020E945203FF91EF9110
:10090000BF91AF919F918F917F916F915F914F9127
:100910003F912F910F900FBE0F901F9018951F922F
:100920000F920FB60F9211242F933F938F939F93A3
:10093000AF93BF938091740290917502A09176025B
:10094000B09177023091730223E0230F2D3720F40A
:100950000196A11DB11D05C026E8230F0296A11D19
:10096000B11D209373028093740290937502A0933B
:100970007602B09377028091780290917902A091EB
:100980007A02B0917B020196A11DB11D809378027D
:1009900090937902A0937A02B0937B02BF91AF91BA
:1009A0009F918F913F912F910F900FBE0F901F90AD
:1009B00018953FB7F8948091780290917902A091B0
:1009C0007A02B0917B0226B5A89B05C02F3F19F093
:1009D0000196A11DB11D3FBF6627782F892F9A2F41
:1009E000620F711D811D911D42E0660F771F881FE8
:1009F000991F4A95D1F70895CF92DF92EF92FF9217
:100A0000CF93DF936B017C010E94D904EB01C114E9
:100A1000D104E104F10489F00E948D090E94D904F7
:100A20006C1B7D0B683E734090F381E0C81AD108BF
:100A3000E108F108C851DC4FEACFDF91CF91FF9078
:100A4000EF90DF90CF900895789484B5826084BD54
:100A500084B5816084BD85B5826085BD85B58160C2
:100A600085BDEEE6F0E0808181608083E1E8F0E022
:100A70001082808182608083808181608083E0E851
:100A8000F0E0808181608083E1EBF0E08081846030
:100A90008083E0EBF0E0808181608083EAE7F0E032
:100AA0008081846080838081826080838081816096
:100AB00080838081806880831092C1000895833094
:100AC00081F028F4813099F08230A1F008958730C8
:100AD000A9F08830B9F08430D1F4809180008F7D06
:100AE00003C0809180008F7780938000089584B543
:100AF0008F7702C084B58F7D84BD08958091B0004A
:100B00008F7703C08091B0008F7D8093B0000895EF
:100B1000CF93DF9390E0FC01E458FF4F2491FC0158
:100B2000E057FF4F8491882349F190E0880F991F87
:100B3000FC01E255FF4FA591B4918C559F4FFC01EC
:100B4000C591D4919FB7611108C0F8948C912095FC
:100B500082238C93888182230AC0623051F4F894F6
:100B60008C91322F309583238C938881822B8883BC
:100B700004C0F8948C91822B8C939FBFDF91CF910E
:100B800008950F931F93CF93DF931F92CDB7DEB7D6
:100B9000282F30E0F901E859FF4F8491F901E4581A
:100BA000FF4F1491F901E057FF4F04910023C9F062
:100BB000882321F069830E945F056981E02FF0E0BE
:100BC000EE0FFF1FEC55FF4FA591B4919FB7F8941E
:100BD0008C91611103C01095812301C0812B8C93EE
:100BE0009FBF0F90DF91CF911F910F910895FC014E
:100BF000818D228D90E0805C9F4F821B91098F73C5
:100C000099270895FC01918D828D981731F0828D7E
:100C1000E80FF11D858D90E008958FEF9FEF089507
:100C2000FC01918D828D981761F0828DDF01A80FF4
:100C3000B11D5D968C91928D9F5F9F73928F90E016
:100C400008958FEF9FEF089584E997E0892B49F08D
:100C500080E090E0892B29F00E94940781110C9488
:100C600000000895FC01848DDF01A80FB11DA35A77
:100C7000BF4F2C91848D90E001968F739927848FBC
:100C8000A689B7892C93A089B1898C9180648C93B3
:100C9000938D848D981306C00288F389E02D80819E
:100CA0008F7D80830895CF93DF93EC01888D882317
:100CB000C9F0EA89FB89808185FD05C0A889B989C9
:100CC0008C9186FD0FC00FB607FCF5CF808185FFA4
:100CD000F2CFA889B9898C9185FFEDCFCE010E9412
:100CE0003206E7CFDF91CF910895CF92DF92FF9246
:100CF0000F931F93CF93DF931F92CDB7DEB76C0195
:100D0000DC015B969C915B975C968C915C97981349
:100D100007C05096ED91FC915197808185FD32C0BE
:100D2000F601038D10E00F5F1F4F0F731127F02E98
:100D3000F601848DF81211C00FB607FCF9CFD60169
:100D40005096ED91FC915197808185FFF1CFC601BE
:100D500069830E9432066981EBCF838DE80FF11D14
:100D6000E35AFF4F6083D6015B960C935B975296D4
:100D7000ED91FC91539780818062808381E0589649
:100D80008C930DC0D6015696ED91FC9157976083D8
:100D90005096ED91FC91519780818064808381E031
:100DA00090E00F90DF91CF911F910F91FF90DF9016
:100DB000CF900895BF92CF92DF92EF92FF92CF93A0
:100DC000DF93EC016A017B01B22EE889F98982E0A8
:100DD0008083411581EE580761057105A1F060E03F
:100DE00079E08DE390E0A70196010E948E092150E1
:100DF0003109410951095695479537952795211590
:100E000080E1380798F0E889F989108260E874E891
:100E10008EE190E0A70196010E948E0921503109D0
:100E2000410951095695479537952795EC85FD85DC
:100E30003083EE85FF852083188EEC89FD89B08292
:100E4000EA89FB89808180618083EA89FB898081CE
:100E500088608083EA89FB89808180688083EA8951
:100E6000FB8980818F7D8083DF91CF91FF90EF9010
:100E7000DF90CF90BF9008951F920F920FB60F9200
:100E800011242F938F939F93EF93FF93E0918C0204
:100E9000F0918D028081E0919202F091930282FDA7
:100EA00012C09081809195028F5F8F73209196027E
:100EB000821751F0E0919502F0E0E458FD4F958FD4
:100EC0008093950201C08081FF91EF919F918F9156
:100ED0002F910F900FBE0F901F9018951F920F9299
:100EE0000FB60F9211242F933F934F935F936F93FD
:100EF0007F938F939F93AF93BF93EF93FF938CE771
:100F000092E00E943206FF91EF91BF91AF919F91C5
:100F10008F917F916F915F914F913F912F910F90A2
:100F20000FBE0F901F9018958CE792E00E94F70576
:100F300021E0892B09F420E0822F089510927F028E
:100F400010927E0288EE93E0A0E0B0E080938002F1
:100F500090938102A0938202B093830280E991E092
:100F600090937D0280937C0285EC90E090938902BF
:100F70008093880284EC90E090938B0280938A02A5
:100F800080EC90E090938D0280938C0281EC90E055
:100F900090938F0280938E0282EC90E09093910266
:100FA0008093900286EC90E090939302809392025B
:100FB0001092950210929602109297021092980247
:100FC000089508950E9424050E94E1070E94560199
:100FD000C4E2D6E00E9498012097E1F30E94240623
:100FE000F9CFCF92DF92EF92FF920F931F93CF939F
:100FF000DF936C017A01EB01E60EF71E00E010E0D2
:10100000CE15DF0561F06991D601ED91FC9101905B
:10101000F081E02DC6010995080F191FF1CFC80115
:10102000DF91CF911F910F91FF90EF90DF90CF90C4
:1010300008956115710581F0DB010D900020E9F73D
:10104000AD0141505109461B570BDC01ED91FC915C
:101050000280F381E02D099480E090E00895DC01A6
:10106000ED91FC91DB0114964D915C9115976D917A
:101070007C910280F381E02D0994DC01ED91FC91DB
:101080000190F081E02D09940F931F93CF93DF938C
:10109000EC016DE00E943D088C016AE0CE010E94E7
:1010A0003D08800F911FDF91CF911F910F910895FF
:1010B0000F931F93CF93DF93EC010E942F088C01B5
:1010C000CE010E944408800F911FDF91CF911F91A4
:1010D0000F9108950F931F93CF93DF93EC010E941C
:1010E00019088C01CE010E944408800F911FDF91E6
:1010F000CF911F910F910895FC01808191810C94F3
:101100004E0ACF93DF93EC0188819981009711F00B
:101110000E944E0A198218821D821C821B821A822A
:10112000DF91CF9108950F931F93CF93DF93EC013D
:101130008B016F5F7F4F888199810E94DD0A009744
:1011400031F0998388831B830A8381E001C080E0AA
:10115000DF91CF911F910F910895CF93DF93EC0111
:1011600088819981892B29F08A819B81861797072D
:1011700060F4CE010E949308882341F08C819D8108
:10118000892B19F4E881F981108281E0DF91CF91F8
:101190000895EF92FF920F931F93CF93DF93EC018B
:1011A0007B018A01BA010E94AD08811104C0CE0101
:1011B0000E94810807C01D830C83B7018881998133
:1011C0000E94B00BCE01DF91CF911F910F91FF9044
:1011D000EF900895FC011182108213821282158211
:1011E00014826115710559F0FB0101900020E9F7A7
:1011F000AF0141505109461B570B0C94C908089583
:10120000CF93DF93EC016115710561F0FB01019053
:101210000020E9F7AF0141505109461B570B0E94CE
:10122000C90802C00E948108CE01DF91CF910895C4
:10123000EF92FF920F931F93CF93DF93EC017B010B
:101240000C811D816115710511F480E016C04115F6
:10125000510591F0040F151FB8010E94AD088823B5
:10126000A1F3288139818C819D81B701820F931F61
:101270000E94B00B1D830C8381E0DF91CF911F9101
:101280000F91FF90EF900895FB014481558160819B
:1012900071810C9418096115710559F0FB010190D9
:1012A0000020E9F7AF0141505109461B570B0C9440
:1012B000180980E00895EF92FF920F931F93CF9348
:1012C000DF93CDB7DEB728970FB6F894DEBF0FBE19
:1012D000CDBF7C01CB014AE050E08E010F5F1F4F74
:1012E000B8010E94B70BF80101900020E9F7AF01A7
:1012F00041505109401B510BB801C7010E94180908
:1013000028960FB6F894DEBF0FBECDBFDF91CF9108
:101310001F910F91FF90EF9008950895A1E21A2E6A
:10132000AA1BBB1BFD010DC0AA1FBB1FEE1FFF1F89
:10133000A217B307E407F50720F0A21BB30BE40BD9
:10134000F50B661F771F881F991F1A9469F7609520
:101350007095809590959B01AC01BD01CF010895DA
:10136000EE0FFF1F0590F491E02D0994CF93DF93CA
:101370008230910510F482E090E0E0911B03F0913F
:101380001C0320E030E0A0E0B0E0309739F140816C
:10139000518148175907B8F04817590771F48281ED
:1013A0009381109729F013969C938E9312972CC0DB
:1013B00090931C0380931B0327C02115310531F046
:1013C0004217530718F0A901DB0101C0EF019A0190
:1013D000BD01DF010280F381E02DD7CF211531055A
:1013E000F9F0281B390B2430310580F48A819B8168
:1013F0006115710521F0FB019383828304C09093F2
:101400001C0380931B03FE01329644C0FE01E20FD1
:10141000F31F8193919322503109398328833AC075
:101420002091190330911A03232B41F420910201DA
:101430003091030130931A03209319032091000186
:10144000309101012115310541F42DB73EB740918E
:10145000040150910501241B350BE0911903F09113
:101460001A03E217F307A0F42E1B3F0B28173907C6
:1014700078F0AC014E5F5F4F2417350748F04E0FF0
:101480005F1F50931A03409319038193919302C0F5
:10149000E0E0F0E0CF01DF91CF910895CF93DF93AB
:1014A000009709F487C0FC01329713821282C09121
:1014B0001B03D0911C03209781F420813181280FD8
:1014C000391F8091190390911A038217930779F5B8
:1014D000F0931A03E09319036DC0DE0120E030E0C1
:1014E000AE17BF0750F412964D915C9113979D0172
:1014F0004115510509F1DA01F3CFB383A28340818D
:101500005181840F951F8A179B0771F48D919C91CF
:101510001197840F951F02969183808312968D9167
:101520009C911397938382832115310529F4F093BD
:101530001C03E0931B033EC0D9011396FC93EE936A
:1015400012974D915D91A40FB51FEA17FB0779F42F
:1015500080819181840F951F0296D90111969C93E9
:101560008E938281938113969C938E931297E0E0E1
:10157000F0E08A819B81009719F0FE01EC01F9CF20
:10158000CE01029628813981820F931F2091190381
:1015900030911A032817390769F4309729F410920B
:1015A0001C0310921B0302C013821282D0931A03F1
:1015B000C0931903DF91CF910895A0E0B0E0E3EE6E
:1015C000FAE00C94FB0BEC01CB01209719F40E947C
:1015D000B609B8C0FE01E60FF71F9E01225031097F
:1015E000E217F30708F4ACC0D9010D911C911197D3
:1015F00006171707B8F00530110508F49FC0A801B9
:10160000445051094617570708F498C00250110971
:10161000061B170B019311936D937C93CF010E94CE
:101620004E0A8CC05B01A01AB10A4E01800E911EB9
:10163000A0911B03B0911C03612C712C60E070E041
:10164000109709F449C0A815B905C9F5ED90FC90AB
:101650001197670142E0C40ED11CCA14DB0478F173
:1016600047018A189B08640142E0C40ED11C1296FF
:10167000BC9012971396AC91B5E0CB16D10440F014
:10168000B282A38391828082D9018D939C9309C0F9
:101690000E5F1F4F0E0D1F1DF90111830083EB2DEF
:1016A000FA2F6115710531F0DB011396FC93EE936F
:1016B000129744C0F0931C03E0931B033FC06D914D
:1016C0007C9111976616770608F43B01BD011296CE
:1016D0000D90BC91A02DB4CF6091190370911A03A5
:1016E00068157905E9F468167906D0F4409100018F
:1016F000509101014115510541F44DB75EB760911C
:10170000040170910501461B570BE417F507C0F45F
:10171000F0931A03E0931903F901918380830EC0BB
:101720000E94B6097C01009759F0A801BE010E94F1
:10173000A70BCE010E944E0AC70104C0CE0102C011
:1017400080E090E0CDB7DEB7EEE00C94170CFB0123
:10175000DC0102C001900D9241505040D8F708952D
:10176000FB01DC0101900D920020E1F70895453264
:10177000510520F4423010F00C94C20BFB01108292
:10178000CB010895BB274A3031F4992322F4BDE2FE
:10179000909581959F4F0C94CE0BBB27FB0155274D
:1017A000AA27880F991FAA1FA41710F0A41B8395BE
:1017B0005051B9F7A05DAA3308F0A95DA193009735
:1017C00079F7B111B1931192CB010C94E70BDC01C5
:1017D000FC01672F71917723E1F7329704C07C9168
:1017E0006D9370836291AE17BF07C8F308952F926F
:1017F0003F924F925F926F927F928F929F92AF92A1
:10180000BF92CF92DF92EF92FF920F931F93CF93ED
:10181000DF93CDB7DEB7CA1BDB0B0FB6F894DEBF84
:101820000FBECDBF09942A88398848885F846E84AA
:101830007D848C849B84AA84B984C884DF80EE80F4
:10184000FD800C811B81AA81B981CE0FD11D0FB6FD
:10185000F894DEBF0FBECDBFED01089510E0CEEBD2
:10186000D0E004C0FE010E94B2092296C03CD1071C
:06187000C9F7F894FFCF58
:1018760000001D038000010154656D703A20006967
:10188600646C650068656174696E6700636F6F6C90
:10189600696E670068656174696E67206465616476
:1018A60062616E6400636F6F6C696E672064656168
:1018B6006462616E6400202D2D2D200053746174C6
:1018C600653A20004552524F522052454144494EF6
:1018D600472054454D50000A0A0A53657475702016
:1018E600436F6D706C6574652E202000000000004B
:1018F6006E02410216021E02310240020000000082
:0C1906007506F107F705100602065306EF
:00000001FF
