:100000000C9460000C9488000C9488000C94880078
:100010000C9488000C9488000C9488000C94880040
:100020000C9488000C9488000C9488000C94880030
:100030000C9488000C9488000C9488000C94880020
:100040000C94F7040C9488000C94A4070C94D60725
:100050000C9488000C9488000C9488000C94880000
:100060000C94CA030C9488000000000800020100F0
:100070000003040700000000000000000102040863
:100080001020408001020408102001020408102002
:10009000040404040404040402020202020203032E
:1000A0000303030300000000250028002B000000CC
:1000B0000000240027002A000C013B0306081E0153
:1000C00011241FBECFEFD8E0DEBFCDBF11E0A0E00E
:1000D000B1E0E6E4F9E102C005900D92A63CB1075B
:1000E000D9F723E0A6ECB1E001C01D92A734B20716
:1000F000E1F710E0CEEBD0E004C02297FE010E94B1
:100100001A0AC83BD107C9F70E944A080C94960CFA
:100110000C94000089EC91E00E94E4088FEC91E0DF
:100120000E94E40885ED91E00C94E4080F931F937E
:10013000CF93DF93CDB7DEB72C970FB6F894DEBF21
:100140000FBECDBF8C0180910701882309F459C0EF
:100150006BE771E0CE0107960E94520968E071E0FA
:10016000CE0101960E9452092091C7013091C80129
:1001700022303105B1F04CF42115310579F02130F0
:100180003105C1F46CE171E011C02330310561F03B
:100190002430310579F464E271E008C06FE071E069
:1001A00005C064E171E002C065E371E0CE0107962D
:1001B0000E946809B801CE0101960E94C30966E455
:1001C00071E0CE0101960E94B3096CE471E0CE01AA
:1001D00001960E94B309BE01695F7F4FCE0101966F
:1001E0000E94AC09BE016F5F7F4F86EA92E00E94D9
:1001F000C008CE0101960E94E408CE0107960E9435
:10020000E4082C960FB6F894DEBF0FBECDBFDF9189
:10021000CF911F910F9108956BE771E085ED91E00B
:100220000E9452096BE771E08FEC91E00E94520945
:100230006BE771E089EC91E00C9452090C948A0010
:10024000CF93DF936AE470E08DED91E00E94390373
:10025000E091DD01F091DE010190F081E02D60E0A0
:100260008DED91E0099541E050E06AE470E08DED9C
:1002700091E00E942C03CAE0D0E08DED91E00E9455
:100280007E02892B31F08DED91E0DF91CF910C94BE
:100290008602219791F764E571E086EA92E00E9478
:1002A000D2088FE190E0DF91CF9108958DED91E03C
:1002B0000E94150326E040E855E260E070E086EA1F
:1002C00092E00E94420761E08CE00E94F00561E04C
:1002D0008DE00E94F00560E08DE00E94290660E05C
:1002E0008CE00E9429060E9420019093DC018093FB
:1002F000DB014B973CF482E090E09093C80180933F
:10030000C70104C01092C8011092C70167E671E0EE
:1003100086EA92E00E94D2088091DB019091DC0194
:100320000E94960060ED77E080E090E00C94640518
:100330008091C7019091C8018230910509F45AC09B
:100340002CF4009759F0019791F1C1C083309105C9
:1003500009F473C0049709F493C0B9C08091DB011C
:100360009091DC019C012C51310927303105C8F4F2
:100370000E949600609106018CE00E94290660911F
:1003800006018DE00E94290668EE73E080E090E0AF
:100390000E9464050E9420019093DC018093DB01A0
:1003A000DDCF83970CF4A3C081E090E0A2C08091E0
:1003B000DB019091DC018B319105CCF00E9496001D
:1003C000609106018CE00E9429066091C6018DE0D3
:1003D0000E94290668EE73E080E090E00E946405C8
:1003E0000E9420019093DC018093DB01E0CF83E049
:1003F00090E07FC08091DB019091DC018432910517
:10040000CCF40E9496006091C6018CE00E942906FF
:10041000609106018DE00E94290668EE73E080E09D
:1004200090E00E9464050E9420019093DC0180937B
:10043000DB01E0CF84E090E05CC08091DB01909133
:10044000DC019C012A51310925303105E0F50E947B
:100450009600609106018CE00E94290660910601D9
:100460008DE00E94290668EE73E080E090E00E9433
:1004700064050E9420019093DC018093DB01DDCFB5
:100480008091DB019091DC019C01205231092530E3
:100490003105C8F40E949600609106018CE00E942C
:1004A0002906609106018DE00E94290668EE73E03E
:1004B00080E090E00E9464050E9420019093DC019E
:1004C0008093DB01DDCF1092C8011092C7018091AB
:1004D0000701882331F06CE771E086EA92E00E9420
:1004E000D20868EE73E080E090E00C94640582E04E
:1004F00090E09093C8018093C701E9CF80910D02ED
:1005000090E020910E02821B9109089520910E0225
:1005100080910D02281750F4E22FF0E0E15FFD4FCB
:10052000808190E02F5F20930E0208958FEF9FEF60
:100530000895E0910E0280910D02E81730F4F0E08A
:10054000E15FFD4F808190E008958FEF9FEF089568
:100550000895CF92DF92EF92FF920F931F93CF9364
:10056000DF937C01CB018A012091E901222389F0EC
:10057000EB016B01C40ED51ECC15DD0569F0699148
:10058000D701ED91FC910190F081E02DC701099513
:10059000F3CF642F0E94A103C801DF91CF911F9177
:1005A0000F91FF90EF90DF90CF900895CF93DF935E
:1005B0001F92CDB7DEB769832091E9012223D1F0E4
:1005C0002091EA01203240F021E030E0FC01338349
:1005D000228380E090E015C08091EB01E82FF0E0ED
:1005E000E451FE4F998190838F5F8093EB0180935C
:1005F000EA0105C061E0CE0101960E94A10381E0FD
:1006000090E00F90DF91CF910895FC011382128248
:1006100048EE53E060E070E044835583668377835F
:1006200089EA91E091838083089510920E021092DE
:100630000D021092EB011092EA010C943F03862FF9
:10064000413208F040E26FE072E00E945D031092D8
:100650000E0280930D02089521E00C941F0381E0A7
:100660008093E90160930C021092EB011092EA0171
:1006700008950C942F038DED91E00C9405031092D6
:100680009C0281E080939A021092990261E082E1DB
:100690000E94290661E083E10E942906E9EBF0E06F
:1006A00080818E7F808380818D7F808388E48093AA
:1006B000B80085E48093BC000895413208F03FC043
:1006C00090919C029111FCCF91E090939C02209319
:1006D0009A022FEF20932F0210927402240F20937E
:1006E000730290939B0290919B02880F892B8093B9
:1006F0009B0280919902813041F41092990280917D
:100700009B028093BB0085EC01C085EE8093BC000A
:1007100080919C028130E1F380917402841710F47F
:100720004091740225E732E0FB01D9018A2F821B38
:10073000841718F48D918193F9CF842F089580E068
:100740000895613298F420919C02243089F46093DA
:100750005102FC0183E592E0DC012A2F281B2617B9
:1007600018F421912D93F9CF80E0089581E0089548
:1007700082E0089585ED8093BC008091BC0084FDEB
:10078000FCCF10929C02089585EC8093BC001092DF
:100790009C0208951F920F920FB60F9211242F936F
:1007A0003F934F935F936F937F938F939F93AF93F9
:1007B000BF93EF93FF938091B900887F803609F44F
:1007C0009CC068F5883209F45BC090F4803109F46C
:1007D00054C038F4882309F4F5C0883009F44DC0BA
:1007E000F5C0883109F44CC0803209F45DC0EEC018
:1007F000803409F468C048F4803309F455C0883364
:1008000009F0E4C080932F02A8C0803509F44FC0DE
:10081000883509F45DC0883409F0D8C0D5C088395E
:1008200009F4C6C0A8F4883709F467C038F48836DC
:1008300009F463C0803709F460C0C8C0883809F47F
:10084000B7C0803909F45FC0803809F0BFC05BC011
:10085000803B09F485C038F4803A09F466C0883AD0
:1008600009F47EC0B3C0803C09F4A6C0883C09F4FA
:10087000A3C0883B09F489C0A9C080919B0210C025
:100880009091740280917302981770F5E091740250
:1008900081E08E0F80937402F0E0EB58FD4F808171
:1008A0008093BB0085EC85C080932F028DC0E091C2
:1008B000740281E08E0F809374028091BB00F0E09F
:1008C000EB58FD4F808390917402809173026DC04C
:1008D000E091740281E08E0F809374028091BB00DE
:1008E000F0E0EB58FD4F808380919A0281116CC03B
:1008F00081E08093990284EA60C083E080939C0247
:1009000010923002CFCF80913002803208F050C078
:10091000E091300281E08E0F809330028091BB0025
:10092000F0E0EF5CFD4F8083BDCF809130028032DC
:1009300030F4E0913002F0E0EF5CFD4F10820E9455
:10094000BA036091300270E0E0919502F091960256
:1009500081E392E00995109230020E94C40336C0F0
:1009600084E080939C021092520210925102E09116
:100970009702F0919802099580915102811105C06A
:1009800081E08093510210925302E091520281E083
:100990008E0F80935202F0E0ED5AFD4F80818093DC
:1009A000BB009091520280915102981708F47ACFBF
:1009B00085E88093BC000AC085EC8093BC0010924F
:1009C0009C0204C010922F020E94BA03FF91EF9183
:1009D000BF91AF919F918F917F916F915F914F9157
:1009E0003F912F910F900FBE0F901F9018951F925F
:1009F0000F920FB60F9211242F933F938F939F93D3
:100A0000AF93BF9380919E0290919F02A091A0020C
:100A1000B091A10230919D0223E0230F2D3720F4E5
:100A20000196A11DB11D05C026E8230F0296A11D48
:100A3000B11D20939D0280939E0290939F02A093EC
:100A4000A002B093A1028091A2029091A302A09172
:100A5000A402B091A5020196A11DB11D8093A2022E
:100A60009093A302A093A402B093A502BF91AF916B
:100A70009F918F913F912F910F900FBE0F901F90DC
:100A800018953FB7F8948091A2029091A302A0918B
:100A9000A402B091A50226B5A89B05C02F3F19F06E
:100AA0000196A11DB11D3FBF6627782F892F9A2F70
:100AB000620F711D811D911D42E0660F771F881F17
:100AC000991F4A95D1F70895CF92DF92EF92FF9246
:100AD000CF93DF936B017C010E944105EB01C114B0
:100AE000D104E104F10489F00E94F5090E94410556
:100AF0006C1B7D0B683E734090F381E0C81AD108EF
:100B0000E108F108C851DC4FEACFDF91CF91FF90A7
:100B1000EF90DF90CF900895789484B5826084BD83
:100B200084B5816084BD85B5826085BD85B58160F1
:100B300085BDEEE6F0E0808181608083E1E8F0E051
:100B40001082808182608083808181608083E0E880
:100B5000F0E0808181608083E1EBF0E0808184605F
:100B60008083E0EBF0E0808181608083EAE7F0E061
:100B700080818460808380818260808380818160C5
:100B800080838081806880831092C10008958330C3
:100B900081F028F4813099F08230A1F008958730F7
:100BA000A9F08830B9F08430D1F4809180008F7D35
:100BB00003C0809180008F7780938000089584B572
:100BC0008F7702C084B58F7D84BD08958091B00079
:100BD0008F7703C08091B0008F7D8093B00008951F
:100BE000CF93DF9390E0FC01E458FF4F2491FC0188
:100BF000E057FF4F8491882349F190E0880F991FB7
:100C0000FC01E255FF4FA591B4918C559F4FFC011B
:100C1000C591D4919FB7611108C0F8948C9120952B
:100C200082238C93888182230AC0623051F4F89425
:100C30008C91322F309583238C938881822B8883EB
:100C400004C0F8948C91822B8C939FBFDF91CF913D
:100C500008950F931F93CF93DF931F92CDB7DEB705
:100C6000282F30E0F901E859FF4F8491F901E45849
:100C7000FF4F1491F901E057FF4F04910023C9F091
:100C8000882321F069830E94C7056981E02FF0E085
:100C9000EE0FFF1FEC55FF4FA591B4919FB7F8944D
:100CA0008C91611103C01095812301C0812B8C931D
:100CB0009FBF0F90DF91CF911F910F910895FC017D
:100CC000818D228D90E0805C9F4F821B91098F73F4
:100CD00099270895FC01918D828D981731F0828DAE
:100CE000E80FF11D858D90E008958FEF9FEF089537
:100CF000FC01918D828D981761F0828DDF01A80F24
:100D0000B11D5D968C91928D9F5F9F73928F90E045
:100D100008958FEF9FEF08958CEF97E0892B49F0AE
:100D200080E090E0892B29F00E94FC0781110C944F
:100D300000000895FC01848DDF01A80FB11DA35AA6
:100D4000BF4F2C91848D90E001968F739927848FEB
:100D5000A689B7892C93A089B1898C9180648C93E2
:100D6000938D848D981306C00288F389E02D8081CD
:100D70008F7D80830895CF93DF93EC01888D882346
:100D8000C9F0EA89FB89808185FD05C0A889B989F8
:100D90008C9186FD0FC00FB607FCF5CF808185FFD3
:100DA000F2CFA889B9898C9185FFEDCFCE010E9441
:100DB0009A06E7CFDF91CF910895CF92DF92FF920D
:100DC0000F931F93CF93DF931F92CDB7DEB76C01C4
:100DD000DC015B969C915B975C968C915C97981379
:100DE00007C05096ED91FC915197808185FD32C0EE
:100DF000F601038D10E00F5F1F4F0F731127F02EC8
:100E0000F601848DF81211C00FB607FCF9CFD60198
:100E10005096ED91FC915197808185FFF1CFC601ED
:100E200069830E949A066981EBCF838DE80FF11DDB
:100E3000E35AFF4F6083D6015B960C935B97529603
:100E4000ED91FC91539780818062808381E0589678
:100E50008C930DC0D6015696ED91FC915797608307
:100E60005096ED91FC91519780818064808381E060
:100E700090E00F90DF91CF911F910F91FF90DF9045
:100E8000CF900895BF92CF92DF92EF92FF92CF93CF
:100E9000DF93EC016A017B01B22EE889F98982E0D7
:100EA0008083411581EE580761057105A1F060E06E
:100EB00079E08DE390E0A70196010E94F6092150A8
:100EC00031094109510956954795379527952115BF
:100ED00080E1380798F0E889F989108260E874E8C1
:100EE0008EE190E0A70196010E94F6092150310998
:100EF000410951095695479537952795EC85FD850C
:100F00003083EE85FF852083188EEC89FD89B082C1
:100F1000EA89FB89808180618083EA89FB898081FD
:100F200088608083EA89FB89808180688083EA8980
:100F3000FB8980818F7D8083DF91CF91FF90EF903F
:100F4000DF90CF90BF9008951F920F920FB60F922F
:100F500011242F938F939F93EF93FF93E091B60209
:100F6000F091B7028081E091BC02F091BD0282FD58
:100F700012C090818091BF028F5F8F732091C00259
:100F8000821751F0E091BF02F0E0EA55FD4F958FD6
:100F90008093BF0201C08081FF91EF919F918F915B
:100FA0002F910F900FBE0F901F9018951F920F92C8
:100FB0000FB60F9211242F933F934F935F936F932C
:100FC0007F938F939F93AF93BF93EF93FF9386EAA3
:100FD00092E00E949A06FF91EF91BF91AF919F918D
:100FE0008F917F916F915F914F913F912F910F90D2
:100FF0000FBE0F901F90189586EA92E00E945F0640
:1010000021E0892B09F420E0822F08951092A90293
:101010001092A80288EE93E0A0E0B0E08093AA02CC
:101020009093AB02A093AC02B093AD0289EB91E038
:101030009093A7028093A60285EC90E09093B30270
:101040008093B20284EC90E09093B5028093B40256
:1010500080EC90E09093B7028093B60281EC90E030
:101060009093B9028093B80282EC90E09093BB0217
:101070008093BA0286EC90E09093BD028093BC020C
:101080001092BF021092C0021092C1021092C202CE
:10109000089508950E948C050E9449080E945601F7
:1010A000CCE8D6E00E9498012097E1F30E948C06DC
:1010B000F9CFCF92DF92EF92FF920F931F93CF93CE
:1010C000DF936C017A01EB01E60EF71E00E010E001
:1010D000CE15DF0561F06991D601ED91FC9101908B
:1010E000F081E02DC6010995080F191FF1CFC80145
:1010F000DF91CF911F910F91FF90EF90DF90CF90F4
:1011000008956115710581F0DB010D900020E9F76C
:10111000AD0141505109461B570BDC01ED91FC918B
:101120000280F381E02D099480E090E00895DC01D5
:10113000ED91FC91DB0114964D915C9115976D91A9
:101140007C910280F381E02D0994DC01ED91FC910A
:101150000190F081E02D09940F931F93CF93DF93BB
:10116000EC016DE00E94A5088C016AE0CE010E94AE
:10117000A508800F911FDF91CF911F910F910895C6
:101180000F931F93CF93DF93EC010E9497088C017C
:10119000CE010E94AC08800F911FDF91CF911F916B
:1011A0000F9108950F931F93CF93DF93EC010E944B
:1011B00081088C01CE010E94AC08800F911FDF9145
:1011C000CF911F910F910895FC01808191810C9422
:1011D000B60ACF93DF93EC0188819981009711F0D3
:1011E0000E94B60A198218821D821C821B821A82F2
:1011F000DF91CF9108950F931F93CF93DF93EC016D
:101200008B016F5F7F4F888199810E94450B00970A
:1012100031F0998388831B830A8381E001C080E0D9
:10122000DF91CF911F910F910895CF93DF93EC0140
:1012300088819981892B29F08A819B81861797075C
:1012400060F4CE010E94FB08882341F08C819D81CF
:10125000892B19F4E881F981108281E0DF91CF9127
:101260000895EF92FF920F931F93CF93DF93EC01BA
:101270007B018A01BA010E941509811104C0CE01C7
:101280000E94E90807C01D830C83B70188819981FA
:101290000E94180CCE01DF91CF911F910F91FF900A
:1012A000EF900895FC011182108213821282158240
:1012B00014826115710559F0FB0101900020E9F7D6
:1012C000AF0141505109461B570B0C943109089549
:1012D000CF93DF93EC016115710561F0FB01019083
:1012E0000020E9F7AF0141505109461B570B0E94FE
:1012F000310902C00E94E908CE01DF91CF91089523
:10130000EF92FF920F931F93CF93DF93EC017B013A
:101310000C811D816115710511F480E016C0411525
:10132000510591F0040F151FB8010E94150988237B
:10133000A1F3288139818C819D81B701820F931F90
:101340000E94180C1D830C8381E0DF91CF911F91C7
:101350000F91FF90EF900895FB01448155816081CA
:1013600071810C9480096115710559F0FB010190A0
:101370000020E9F7AF0141505109461B570B0C946F
:10138000800980E00895EF92FF920F931F93CF930F
:10139000DF93CDB7DEB728970FB6F894DEBF0FBE48
:1013A000CDBF7C01CB014AE050E08E010F5F1F4FA3
:1013B000B8010E941F0CF80101900020E9F7AF016D
:1013C00041505109401B510BB801C7010E948009CF
:1013D00028960FB6F894DEBF0FBECDBFDF91CF9138
:1013E0001F910F91FF90EF9008950895A1E21A2E9A
:1013F000AA1BBB1BFD010DC0AA1FBB1FEE1FFF1FB9
:10140000A217B307E407F50720F0A21BB30BE40B08
:10141000F50B661F771F881F991F1A9469F760954F
:101420007095809590959B01AC01BD01CF01089509
:10143000EE0FFF1F0590F491E02D0994CF93DF93F9
:101440008230910510F482E090E0E0914503F09144
:10145000460320E030E0A0E0B0E0309739F1408171
:10146000518148175907B8F04817590771F482811C
:101470009381109729F013969C938E9312972CC00A
:10148000909346038093450327C02115310531F021
:101490004217530718F0A901DB0101C0EF019A01BF
:1014A000BD01DF010280F381E02DD7CF2115310589
:1014B000F9F0281B390B2430310580F48A819B8197
:1014C0006115710521F0FB019383828304C0909321
:1014D000460380934503FE01329644C0FE01E20FAD
:1014E000F31F8193919322503109398328833AC0A5
:1014F0002091430330914403232B41F420910201B6
:101500003091030130934403209343032091000161
:10151000309101012115310541F42DB73EB74091BD
:10152000040150910501241B350BE0914303F09118
:101530004403E217F307A0F42E1B3F0B28173907CB
:1015400078F0AC014E5F5F4F2417350748F04E0F1F
:101550005F1F50934403409343038193919302C0D0
:10156000E0E0F0E0CF01DF91CF910895CF93DF93DA
:10157000009709F487C0FC01329713821282C09150
:101580004503D0914603209781F420813181280FB3
:10159000391F80914303909144038217930779F593
:1015A000F0934403E09343036DC0DE0120E030E09C
:1015B000AE17BF0750F412964D915C9113979D01A1
:1015C0004115510509F1DA01F3CFB383A2834081BC
:1015D0005181840F951F8A179B0771F48D919C91FF
:1015E0001197840F951F02969183808312968D9197
:1015F0009C911397938382832115310529F4F093ED
:101600004603E09345033EC0D9011396FC93EE9345
:1016100012974D915D91A40FB51FEA17FB0779F45E
:1016200080819181840F951F0296D90111969C9318
:101630008E938281938113969C938E931297E0E010
:10164000F0E08A819B81009719F0FE01EC01F9CF4F
:10165000CE01029628813981820F931F2091430386
:10166000309144032817390769F4309729F4109210
:1016700046031092450302C013821282D0934403A2
:10168000C0934303DF91CF910895A0E0B0E0EBE475
:10169000FBE00C94630CEC01CB01209719F40E9441
:1016A0001E0AB8C0FE01E60FF71F9E012250310945
:1016B000E217F30708F4ACC0D9010D911C91119702
:1016C00006171707B8F00530110508F49FC0A801E8
:1016D000445051094617570708F498C002501109A1
:1016E000061B170B019311936D937C93CF010E94FE
:1016F000B60A8CC05B01A01AB10A4E01800E911E81
:10170000A0914503B0914603612C712C60E070E01C
:10171000109709F449C0A815B905C9F5ED90FC90DA
:101720001197670142E0C40ED11CCA14DB0478F1A2
:1017300047018A189B08640142E0C40ED11C12962E
:10174000BC9012971396AC91B5E0CB16D10440F043
:10175000B282A38391828082D9018D939C9309C028
:101760000E5F1F4F0E0D1F1DF90111830083EB2D1E
:10177000FA2F6115710531F0DB011396FC93EE939E
:10178000129744C0F0934603E09345033FC06D9128
:101790007C9111976616770608F43B01BD011296FD
:1017A0000D90BC91A02DB4CF609143037091440380
:1017B00068157905E9F468167906D0F440910001BE
:1017C000509101014115510541F44DB75EB760914B
:1017D000040170910501461B570BE417F507C0F48F
:1017E000F0934403E0934303F901918380830EC097
:1017F0000E941E0A7C01009759F0A801BE010E94B8
:101800000F0CCE010E94B60AC70104C0CE0102C06F
:1018100080E090E0CDB7DEB7EEE00C947F0CFB01EA
:10182000DC0102C001900D9241505040D8F708955C
:10183000FB01DC0101900D920020E1F70895453293
:10184000510520F4423010F00C942A0CFB01108258
:10185000CB010895BB274A3031F4992322F4BDE22D
:10186000909581959F4F0C94360CBB27FB01552713
:10187000AA27880F991FAA1FA41710F0A41B8395ED
:101880005051B9F7A05DAA3308F0A95DA193009764
:1018900079F7B111B1931192CB010C944F0CDC018B
:1018A000FC01672F71917723E1F7329704C07C9197
:1018B0006D9370836291AE17BF07C8F308952F929E
:1018C0003F924F925F926F927F928F929F92AF92D0
:1018D000BF92CF92DF92EF92FF920F931F93CF931D
:1018E000DF93CDB7DEB7CA1BDB0B0FB6F894DEBFB4
:1018F0000FBECDBF09942A88398848885F846E84DA
:101900007D848C849B84AA84B984C884DF80EE8023
:10191000FD800C811B81AA81B981CE0FD11D0FB62C
:10192000F894DEBF0FBECDBFED01089510E0CEEB01
:10193000D0E004C0FE010E941A0A2296C03CD107E2
:06194000C9F7F894FFCF87
:10194600000047038000010154656D703A2000696C
:10195600646C650068656174696E6700636F6F6CBF
:10196600696E670068656174696E672064656164A5
:1019760062616E6400636F6F6C696E672064656197
:101986006462616E6400202D2D2D200053746174F5
:10199600653A20004552524F522052454144494E25
:1019A600472054454D50000A0A0A53657475702045
:1019B600436F6D706C6574652E2020002D2D2D2DC6
:1019C6002D2D2D2D2D2D2D2D2D2D2D5354415445A1
:1019D600204348414E47452D2D2D2D2D2D2D2D2DA6
:1019E6002D2D2D2D0000000000D602A9027E0286B4
:1019F600029902A80200000000DD0659085F067879
:061A0600066A06BB0600A3
:00000001FF
