:100000000C945D000C9485000C9485000C94850084
:100010000C9485000C9485000C9485000C9485004C
:100020000C9485000C9485000C9485000C9485003C
:100030000C9485000C9485000C9485000C9485002C
:100040000C94AF040C9485000C9468070C949A07E8
:100050000C9485000C9485000C9485000C9485000C
:100060000C9485000C94850000000008000201003B
:100070000003040700000000000000000102040863
:100080001020408001020408102001020408102002
:10009000040404040404040402020202020203032E
:1000A0000303030300000000250028002B000000CC
:1000B0000000240027002A00CA0711241FBECFEF2A
:1000C000D8E0DEBFCDBF11E0A0E0B1E0E8EBF8E1A1
:1000D00002C005900D92A839B107D9F722E0A8E92E
:1000E000B1E001C01D92A037B207E1F710E0CAEB02
:1000F000D0E004C02297FE010E94DE09C83BD10770
:10010000C9F70E940E080C945A0C0C940000CF936F
:10011000DF9341E050E068E470E08FE991E00E94F5
:100120001504CAE0D0E08FE991E00E944D028823D7
:1001300049F08FE991E00E94500290E090939C0179
:1001400080939B0165E070E080E090E00E942805CC
:10015000219749F741E050E06AE470E08FE991E0CF
:100160000E941504CAE0D0E08FE991E00E944D02A0
:10017000882331F08FE991E00E94500290E014C092
:1001800065E070E080E090E00E942805219761F72B
:1001900068E071E08FEC91E00E94960810929A015D
:1001A0001092990183E190E090939E0180939D01CC
:1001B00080E090E0DF91CF9108950F931F93CF934C
:1001C000DF93CDB7DEB72C970FB6F894DEBF0FBE26
:1001D000CDBF8C0180910601882309F467C066E8D1
:1001E00071E0CE0107960E9416096BE171E0CE0125
:1001F00001960E9416092091990130919A012230AE
:100200003105B1F04CF42115310579F0213031057B
:10021000C1F46EE271E011C02330310561F0243089
:10022000310579F466E371E008C061E271E005C070
:1002300066E271E002C067E471E0CE0107960E94B9
:100240002C09B801CE0101960E94870968E571E08A
:10025000CE0101960E9477096EE571E0CE0101960C
:100260000E947709BE01695F7F4FCE0101960E940F
:10027000700966E671E0CE0101960E9477096091EF
:100280009B0170919C01CE0101960E948709BE01DD
:100290006F5F7F4F8FEC91E00E948408CE01019642
:1002A0000E94A808CE0107960E94A8082C960FB6B7
:1002B000F894DEBF0FBECDBFDF91CF911F910F919C
:1002C000089580910601882349F026E040E855E230
:1002D00060E070E08FEC91E00E94060761E089E049
:1002E0000E94B40561E088E00E94B40560E088E007
:1002F0000E94ED0560E089E00E94ED058FE991E044
:100300000E94370268EB7BE08FE991E00E9448028F
:1003100040E050E068E470E08FE991E00E94AD04B5
:1003200040E050E06AE470E08FE991E00E94AD04A3
:100330000E94870080919D0190919E0140973CF41E
:1003400082E090E090939A018093990104C010920A
:100350009A011092990180910601882331F062E799
:1003600071E08FEC91E00E94960880919D01909140
:100370009E010C94DD008091990190919A01823048
:100380009105A1F12CF4009751F00197D9F008954F
:1003900083309105F1F1049709F446C008958091E6
:1003A0009D0190919E019C0121513109243031051C
:1003B00008F449C045971CF081E090E025C082E038
:1003C00090E022C080919D0190919E018031910525
:1003D00054F00E94DD006091070189E00E94ED0564
:1003E0006091980139C083E090E00EC080919D013A
:1003F00090919E01863191052CF40E94DD00609160
:10040000980125C084E090E090939A01809399012F
:10041000089580919D0190919E019C012E5031097B
:100420002530310558F40FC080919D0190919E01B7
:100430009C01245131092430310528F010929A0191
:100440001092990108950E94DD006091070189E0F2
:100450000E94ED056091070188E00E94ED0568EEBD
:1004600073E080E090E00E9428050C948700449A95
:10047000459AE9EBF0E080818E7F808380818D7FDB
:10048000808388E48093B80084E48093BC0008955E
:100490007093C2016093C10108958091C5010895D0
:1004A0003091C5012091C301231B2093C401311158
:1004B00004C01092C40180E0089531503093C5010A
:1004C000FC01E20FF11D82810895CF92DF92EF923D
:1004D000FF920F931F930E94F9046B017C0184EA41
:1004E0008093BC008091C1019091C2012091BC0019
:1004F00027FD1BC00097D1F30E94F9046C197D09F8
:100500008E099F094091C1015091C2018A0120E0EA
:1005100030E0601771078207930720F31092BC0048
:1005200084E48093BC0081E01CC08091B900887F86
:10053000883029F08091B900887F803111F480E003
:1005400010C08091B900887F883341F48091B90050
:100550001092BC0094E49093BC0002C08091B9005A
:10056000887F1F910F91FF90EF90DF90CF900895BB
:10057000CF92DF92EF92FF920F931F93CF93C62FEC
:100580000E94F9046B017C01CC2311F084EC01C0C2
:1005900084E88093BC008091C1019091C2012091B8
:1005A000BC0027FD1BC00097D1F30E94F9046C1911
:1005B0007D098E099F094091C1015091C2018A01B4
:1005C00020E030E0601771078207930720F3109254
:1005D000BC0084E48093BC0081E010C08091B9002D
:1005E000887F883341F48091B9001092BC0094E474
:1005F0009093BC0002C08091B900887FCF911F9179
:100600000F91FF90EF90DF90CF900895CF92DF92FF
:10061000EF92FF920F931F930E94F9046B017C01EC
:1006200084E98093BC008091C1019091C201209126
:10063000BC0024FF1BC00097D1F30E94F9046C1981
:100640007D098E099F094091C1015091C2018A0123
:1006500020E030E0601771078207930720F31092C3
:10066000BC0084E48093BC0081E001C080E01F9165
:100670000F91FF90EF90DF90CF900895CF92DF928F
:10068000EF92FF920F931F93CF93DF93EC01609350
:10069000BB000E94F9046B017C0184E88093BC00DC
:1006A0008091C1019091C2012091BC0027FD1BC027
:1006B0000097D1F30E94F9046C197D098E099F09F6
:1006C0002091C1013091C201890120E030E0601722
:1006D00071078207930720F31092BC0084E4809393
:1006E000BC0081E024C08091B900887F883129F066
:1006F0008091B900887F803411F480E018C0109197
:10070000B900187F8091B900887F803229F08091EC
:10071000B900887F883429F4CE010E940603812F16
:1007200006C01092BC0084E48093BC00F8CFDF9137
:10073000CF911F910F91FF90EF90DF90CF90089590
:10074000CF92DF92EF92FF920F931F93CF93DF939D
:100750001F92CDB7DEB76C01F42E1092C501109236
:10076000C401411102C0FF24F3948FEF8F0DF601F5
:1007700081831082C60169830E946502F60180832D
:100780006981811148C0660F6F5FC6010E943E03F8
:10079000F6018083811103C000E010E01FC08130AA
:1007A000D1F585E038C0F6018181E8121BC060E018
:1007B000C6010E94B802F60180838130D9F08835E5
:1007C00051F58091BB00F601E00FF11F8283E394A5
:1007D000E092C501E092C3010F5F1F4FE02E0F159D
:1007E00010F30DC061E0C6010E94B802F6018083DB
:1007F000813011F486E00FC0803519F30CC0C601BA
:100800000E940603F6018083882321F0813019F4C9
:1008100087E001C080E00F90DF91CF911F910F9191
:10082000FF90EF90DF90CF9008950C94A003CF92AB
:10083000DF92EF92FF920F931F93CF93DF93EC0120
:100840006093BB000E94F9046B017C0184E88093F3
:10085000BC008091C1019091C2012091BC0027FD94
:100860001BC00097D1F30E94F9046C197D098E0911
:100870009F092091C1013091C201890120E030E03F
:10088000601771078207930720F31092BC0084E47D
:100890008093BC0081E019C08091B900887F8832C4
:1008A00099F01091B900187F8091B900887F80334A
:1008B00021F4CE010E94060305C01092BC0084E41E
:1008C0008093BC00812F01C080E0DF91CF911F9108
:1008D0000F91FF90EF90DF90CF900895EF92FF92ED
:1008E0001F93CF93DF931F92CDB7DEB77C01142FF8
:1008F000FC01108269830E946502F701808369818F
:10090000811124C0660FC7010E943E03F701808356
:10091000882321F08130D1F482E018C0612FC70113
:100920000E941704F7018083882321F0813071F43D
:1009300083E00CC0C7010E940603F701808388236F
:1009400021F0813019F487E001C080E00F90DF9141
:10095000CF911F91FF90EF9008950C946E041F9219
:100960000F920FB60F9211242F933F938F939F9363
:10097000AF93BF938091C7019091C801A091C90125
:10098000B091CA013091C60123E0230F2D3720F426
:100990000196A11DB11D05C026E8230F0296A11DD9
:1009A000B11D2093C6018093C7019093C801A09305
:1009B000C901B093CA018091CB019091CC01A09163
:1009C000CD01B091CE010196A11DB11D8093CB0147
:1009D0009093CC01A093CD01B093CE01BF91AF9184
:1009E0009F918F913F912F910F900FBE0F901F906D
:1009F00018952FB7F8946091C7017091C801809144
:100A0000C9019091CA012FBF08953FB7F894809112
:100A1000CB019091CC01A091CD01B091CE0126B532
:100A2000A89B05C02F3F19F00196A11DB11D3FBF26
:100A30006627782F892F9A2F620F711D811D911DB6
:100A400042E0660F771F881F991F4A95D1F70895D6
:100A5000CF92DF92EF92FF92CF93DF936B017C01F5
:100A60000E940505EB01C114D104E104F10489F0F1
:100A70000E94B9090E9405056C1B7D0B683E7340FE
:100A800090F381E0C81AD108E108F108C851DC4FA1
:100A9000EACFDF91CF91FF90EF90DF90CF90089554
:100AA000789484B5826084BD84B5816084BD85B549
:100AB000826085BD85B5816085BDEEE6F0E0808110
:100AC00081608083E1E8F0E0108280818260808331
:100AD000808181608083E0E8F0E0808181608083B4
:100AE000E1EBF0E0808184608083E0EBF0E08081E6
:100AF00081608083EAE7F0E0808184608083808188
:100B0000826080838081816080838081806880832F
:100B10001092C1000895833081F028F4813099F05B
:100B20008230A1F008958730A9F08830B9F0843080
:100B3000D1F4809180008F7D03C0809180008F77F9
:100B400080938000089584B58F7702C084B58F7D2F
:100B500084BD08958091B0008F7703C08091B0006C
:100B60008F7D8093B0000895CF93DF9390E0FC01D8
:100B7000E458FF4F2491FC01E057FF4F84918823F4
:100B800049F190E0880F991FFC01E255FF4FA591B4
:100B9000B4918C559F4FFC01C591D4919FB76111C1
:100BA00008C0F8948C91209582238C9388818223AD
:100BB0000AC0623051F4F8948C91322F309583231F
:100BC0008C938881822B888304C0F8948C91822B2B
:100BD0008C939FBFDF91CF9108950F931F93CF9375
:100BE000DF931F92CDB7DEB7282F30E0F901E85927
:100BF000FF4F8491F901E458FF4F1491F901E05738
:100C0000FF4F04910023C9F0882321F069830E94DB
:100C10008B056981E02FF0E0EE0FFF1FEC55FF4FD1
:100C2000A591B4919FB7F8948C91611103C0109570
:100C3000812301C0812B8C939FBF0F90DF91CF91B7
:100C40001F910F910895FC01818D228D90E0805CB1
:100C50009F4F821B91098F7399270895FC01918DF5
:100C6000828D981731F0828DE80FF11D858D90E00F
:100C700008958FEF9FEF0895FC01918D828D981755
:100C800061F0828DDF01A80FB11D5D968C91928D70
:100C90009F5F9F73928F90E008958FEF9FEF08956D
:100CA00080EC97E0892B49F080E090E0892B29F0D7
:100CB0000E94C00781110C9400000895FC01848DEE
:100CC000DF01A80FB11DA35ABF4F2C91848D90E076
:100CD00001968F739927848FA689B7892C93A08951
:100CE000B1898C9180648C93938D848D981306C008
:100CF0000288F389E02D80818F7D80830895CF93D2
:100D0000DF93EC01888D8823C9F0EA89FB89808113
:100D100085FD05C0A889B9898C9186FD0FC00FB6E5
:100D200007FCF5CF808185FFF2CFA889B9898C9126
:100D300085FFEDCFCE010E945E06E7CFDF91CF9118
:100D40000895CF92DF92FF920F931F93CF93DF937B
:100D50001F92CDB7DEB76C01DC015B969C915B976F
:100D60005C968C915C97981307C05096ED91FC911E
:100D70005197808185FD32C0F601038D10E00F5F31
:100D80001F4F0F731127F02EF601848DF81211C03A
:100D90000FB607FCF9CFD6015096ED91FC91519713
:100DA000808185FFF1CFC60169830E945E0669815B
:100DB000EBCF838DE80FF11DE35AFF4F6083D6011F
:100DC0005B960C935B975296ED91FC9153978081C3
:100DD0008062808381E058968C930DC0D601569630
:100DE000ED91FC91579760835096ED91FC9151974E
:100DF00080818064808381E090E00F90DF91CF91CB
:100E00001F910F91FF90DF90CF900895BF92CF92E6
:100E1000DF92EF92FF92CF93DF93EC016A017B01A7
:100E2000B22EE889F98982E08083411581EE580766
:100E300061057105A1F060E079E08DE390E0A70124
:100E400096010E94BA09215031094109510956956C
:100E5000479537952795211580E1380798F0E8895F
:100E6000F989108260E874E88EE190E0A7019601AC
:100E70000E94BA09215031094109510956954795F7
:100E800037952795EC85FD853083EE85FF8520839A
:100E9000188EEC89FD89B082EA89FB8980818061A6
:100EA0008083EA89FB89808188608083EA89FB8965
:100EB000808180688083EA89FB8980818F7D80833F
:100EC000DF91CF91FF90EF90DF90CF90BF9008958A
:100ED0001F920F920FB60F9211242F938F939F930F
:100EE000EF93FF93E091DF01F091E0018081E091C9
:100EF000E501F091E60182FD12C090818091E80148
:100F00008F5F8F732091E901821751F0E091E80122
:100F1000F0E0E153FE4F958F8093E80101C080819E
:100F2000FF91EF919F918F912F910F900FBE0F9096
:100F30001F9018951F920F920FB60F9211242F93A6
:100F40003F934F935F936F937F938F939F93AF9351
:100F5000BF93EF93FF938FEC91E00E945E06FF91A9
:100F6000EF91BF91AF919F918F917F916F915F9121
:100F70004F913F912F910F900FBE0F901F9018959A
:100F80008FEC91E00E94230621E0892B09F420E0F8
:100F9000822F08951092D2011092D10188EE93E031
:100FA000A0E0B0E08093D3019093D401A093D50149
:100FB000B093D6018BE891E09093D0018093CF015C
:100FC00085EC90E09093DC018093DB0184EC90E071
:100FD0009093DE018093DD0180EC90E09093E0013E
:100FE0008093DF0181EC90E09093E2018093E10136
:100FF00082EC90E09093E4018093E30186EC90E032
:101000009093E6018093E5011092E8011092E901C6
:101010001092EA011092EB01089508950E94500584
:101020000E940D080E946101C0E5D6E00E94BB014C
:101030002097E1F30E945006F9CFCF92DF92EF9212
:10104000FF920F931F93CF93DF936C017A01EB0113
:10105000E60EF71E00E010E0CE15DF0561F06991A5
:10106000D601ED91FC910190F081E02DC60109952A
:10107000080F191FF1CFC801DF91CF911F910F9178
:10108000FF90EF90DF90CF9008956115710581F08A
:10109000DB010D900020E9F7AD0141505109461BDD
:1010A000570BDC01ED91FC910280F381E02D099456
:1010B00080E090E00895DC01ED91FC91DB01149655
:1010C0004D915C9115976D917C910280F381E02D9B
:1010D0000994DC01ED91FC910190F081E02D0994DF
:1010E0000F931F93CF93DF93EC016DE00E9469088B
:1010F0008C016AE0CE010E946908800F911FDF9188
:10110000CF911F910F9108950F931F93CF93DF936A
:10111000EC010E945B088C01CE010E947008800FD8
:10112000911FDF91CF911F910F9108950F931F93FE
:10113000CF93DF93EC010E9445088C01CE010E9401
:101140007008800F911FDF91CF911F910F9108952B
:10115000FC01808191810C947A0ACF93DF93EC019A
:1011600088819981009711F00E947A0A1982188269
:101170001D821C821B821A82DF91CF9108950F93EA
:101180001F93CF93DF93EC018B016F5F7F4F8881BB
:1011900099810E94090B009731F0998388831B8302
:1011A0000A8381E001C080E0DF91CF911F910F9110
:1011B0000895CF93DF93EC0188819981892B29F0E1
:1011C0008A819B818617970760F4CE010E94BF0831
:1011D000882341F08C819D81892B19F4E881F98164
:1011E000108281E0DF91CF910895EF92FF920F93EB
:1011F0001F93CF93DF93EC017B018A01BA010E9418
:10120000D908811104C0CE010E94AD0807C01D831A
:101210000C83B701888199810E94DC0BCE01DF919C
:10122000CF911F910F91FF90EF900895FC011182D3
:10123000108213821282158214826115710559F091
:10124000FB0101900020E9F7AF0141505109461B15
:10125000570B0C94F5080895CF93DF93EC016115BB
:10126000710561F0FB0101900020E9F7AF014150E9
:101270005109461B570B0E94F50802C00E94AD0899
:10128000CE01DF91CF910895EF92FF920F931F93BC
:10129000CF93DF93EC017B010C811D8161157105FA
:1012A00011F480E016C04115510591F0040F151F8F
:1012B000B8010E94D9088823A1F3288139818C8143
:1012C0009D81B701820F931F0E94DC0B1D830C834D
:1012D00081E0DF91CF911F910F91FF90EF900895E2
:1012E000FB0144815581608171810C944409611531
:1012F000710559F0FB0101900020E9F7AF01415061
:101300005109461B570B0C94440980E00895EF9255
:10131000FF920F931F93CF93DF93CDB7DEB728973C
:101320000FB6F894DEBF0FBECDBF7C01CB014AE003
:1013300050E08E010F5F1F4FB8010E94E30BF801D0
:1013400001900020E9F7AF0141505109401B510BBA
:10135000B801C7010E94440928960FB6F894DEBF71
:101360000FBECDBFDF91CF911F910F91FF90EF90F6
:1013700008950895A1E21A2EAA1BBB1BFD010DC002
:10138000AA1FBB1FEE1FFF1FA217B307E407F50735
:1013900020F0A21BB30BE40BF50B661F771F881F11
:1013A000991F1A9469F760957095809590959B01A7
:1013B000AC01BD01CF010895EE0FFF1F0590F49120
:1013C000E02D0994CF93DF938230910510F482E0F1
:1013D00090E0E0916E02F0916F0220E030E0A0E03A
:1013E000B0E0309739F14081518148175907B8F082
:1013F0004817590771F482819381109729F0139649
:101400009C938E9312972CC090936F0280936E02E0
:1014100027C02115310531F04217530718F0A901F3
:10142000DB0101C0EF019A01BD01DF010280F38100
:10143000E02DD7CF21153105F9F0281B390B2430C9
:10144000310580F48A819B816115710521F0FB01D2
:101450009383828304C090936F0280936E02FE0197
:10146000329644C0FE01E20FF31F81939193225004
:101470003109398328833AC020916C0230916D0282
:10148000232B41F4209102013091030130936D022E
:1014900020936C022091000130910101211531054A
:1014A00041F42DB73EB74091040150910501241B32
:1014B000350BE0916C02F0916D02E217F307A0F496
:1014C0002E1B3F0B2817390778F0AC014E5F5F4F9A
:1014D0002417350748F04E0F5F1F50936D0240935D
:1014E0006C028193919302C0E0E0F0E0CF01DF91C4
:1014F000CF910895CF93DF93009709F487C0FC0143
:10150000329713821282C0916E02D0916F0220979F
:1015100081F420813181280F391F80916C029091D4
:101520006D028217930779F5F0936D02E0936C02D8
:101530006DC0DE0120E030E0AE17BF0750F4129618
:101540004D915C9113979D014115510509F1DA0107
:10155000F3CFB383A28340815181840F951F8A17F3
:101560009B0771F48D919C911197840F951F0296A2
:101570009183808312968D919C911397938382839C
:101580002115310529F4F0936F02E0936E023EC0FD
:10159000D9011396FC93EE9312974D915D91A40F90
:1015A000B51FEA17FB0779F480819181840F951F9D
:1015B0000296D90111969C938E9382819381139602
:1015C0009C938E931297E0E0F0E08A819B810097D4
:1015D00019F0FE01EC01F9CFCE0102962881398184
:1015E000820F931F20916C0230916D0228173907EA
:1015F00069F4309729F410926F0210926E0202C0C3
:1016000013821282D0936D02C0936C02DF91CF914E
:101610000895A0E0B0E0EFE0FBE00C94270CEC01B3
:10162000CB01209719F40E94E209B8C0FE01E60F31
:10163000F71F9E0122503109E217F30708F4ACC0EE
:10164000D9010D911C91119706171707B8F00530B5
:10165000110508F49FC0A8014450510946175707C7
:1016600008F498C002501109061B170B019311933F
:101670006D937C93CF010E947A0A8CC05B01A01A03
:10168000B10A4E01800E911EA0916E02B0916F02C0
:10169000612C712C60E070E0109709F449C0A81526
:1016A000B905C9F5ED90FC901197670142E0C40EB1
:1016B000D11CCA14DB0478F147018A189B08640125
:1016C00042E0C40ED11C1296BC9012971396AC91B6
:1016D000B5E0CB16D10440F0B282A3839182808220
:1016E000D9018D939C9309C00E5F1F4F0E0D1F1DD6
:1016F000F90111830083EB2DFA2F6115710531F08B
:10170000DB011396FC93EE93129744C0F0936F02A3
:10171000E0936E023FC06D917C911197661677063B
:1017200008F43B01BD0112960D90BC91A02DB4CFE1
:1017300060916C0270916D0268157905E9F4681684
:101740007906D0F4409100015091010141155105F5
:1017500041F44DB75EB76091040170910501461BDD
:10176000570BE417F507C0F4F0936D02E0936C0299
:10177000F901918380830EC00E94E2097C010097E9
:1017800059F0A801BE010E94D30BCE010E947A0A33
:10179000C70104C0CE0102C080E090E0CDB7DEB743
:1017A000EEE00C94430CFB01DC0102C001900D92B1
:1017B00041505040D8F70895FB01DC0101900D9293
:1017C0000020E1F708954532510520F4423010F031
:1017D0000C94EE0BFB011082CB010895BB274A301D
:1017E00031F4992322F4BDE2909581959F4F0C949A
:1017F000FA0BBB27FB015527AA27880F991FAA1FA1
:10180000A41710F0A41B83955051B9F7A05DAA331B
:1018100008F0A95DA193009779F7B111B1931192E6
:10182000CB010C94130CDC01FC01672F7191772321
:10183000E1F7329704C07C916D9370836291AE178B
:10184000BF07C8F308952F923F924F925F926F9215
:101850007F928F929F92AF92BF92CF92DF92EF9240
:10186000FF920F931F93CF93DF93CDB7DEB7CA1BC1
:10187000DB0B0FB6F894DEBF0FBECDBF09942A88EC
:10188000398848885F846E847D848C849B84AA8494
:10189000B984C884DF80EE80FD800C811B81AA8121
:1018A000B981CE0FD11D0FB6F894DEBF0FBECDBFEC
:0818B000ED010895F894FFCF4B
:1018B80000007002800001014552524F52205245EB
:1018C8004144494E472054454D50004169723A20E1
:1018D8000069646C650068656174696E6700636FB0
:1018E8006F6C696E670068656174696E672064650E
:1018F800616462616E6400636F6F6C696E67206417
:1019080065616462616E6400202D2D2D2000537482
:101918006174653A2000202D2D2D20426565723AAC
:1019280020000A0A0A536574757020436F6D706C45
:101938006574652E20200000000000A1061D082304
:08194800063C062E067F060096
:00000001FF
